{"contracts/VotingUnoptimized.sol":{"VotingUnoptimized":{"abi":[{"inputs":[{"internalType":"string[]","name":"_candidateNames","type":"string[]"}],"stateMutability":"nonpayable","type":"constructor"},{"inputs":[{"internalType":"uint256","name":"","type":"uint256"}],"name":"candidates","outputs":[{"internalType":"string","name":"name","type":"string"},{"internalType":"uint256","name":"voteCount","type":"uint256"}],"stateMutability":"view","type":"function"},{"inputs":[],"name":"getResults","outputs":[{"internalType":"string","name":"winnerName","type":"string"},{"internalType":"uint256","name":"winnerVotes","type":"uint256"},{"internalType":"string[]","name":"candidateNames","type":"string[]"},{"internalType":"uint256[]","name":"voteCounts","type":"uint256[]"},{"internalType":"uint256[][]","name":"allVoters","type":"uint256[][]"}],"stateMutability":"view","type":"function"},{"inputs":[{"internalType":"uint256","name":"candidateIndex","type":"uint256"},{"internalType":"uint256","name":"voterId","type":"uint256"}],"name":"vote","outputs":[],"stateMutability":"nonpayable","type":"function"}],"evm":{"bytecode":{"linkReferences":{},"object":"608060405234801561001057600080fd5b5060405161143238038061143283398181016040528101906100329190610318565b60005b81518110156100b65760006001816001815401808255809150500390600052602060002090505081818151811061006f5761006e610361565b5b60200260200101516000828154811061008b5761008a610361565b5b906000526020600020906004020160000190816100a891906105b1565b508080600101915050610035565b5050610683565b6000604051905090565b600080fd5b600080fd5b600080fd5b6000601f19601f8301169050919050565b7f4e487b7100000000000000000000000000000000000000000000000000000000600052604160045260246000fd5b61011f826100d6565b810181811067ffffffffffffffff8211171561013e5761013d6100e7565b5b80604052505050565b60006101516100bd565b905061015d8282610116565b919050565b600067ffffffffffffffff82111561017d5761017c6100e7565b5b602082029050602081019050919050565b600080fd5b600080fd5b600067ffffffffffffffff8211156101b3576101b26100e7565b5b6101bc826100d6565b9050602081019050919050565b60005b838110156101e75780820151818401526020810190506101cc565b60008484015250505050565b600061020661020184610198565b610147565b90508281526020810184848401111561022257610221610193565b5b61022d8482856101c9565b509392505050565b600082601f83011261024a576102496100d1565b5b815161025a8482602086016101f3565b91505092915050565b600061027661027184610162565b610147565b905080838252602082019050602084028301858111156102995761029861018e565b5b835b818110156102e057805167ffffffffffffffff8111156102be576102bd6100d1565b5b8086016102cb8982610235565b8552602085019450505060208101905061029b565b5050509392505050565b600082601f8301126102ff576102fe6100d1565b5b815161030f848260208601610263565b91505092915050565b60006020828403121561032e5761032d6100c7565b5b600082015167ffffffffffffffff81111561034c5761034b6100cc565b5b610358848285016102ea565b91505092915050565b7f4e487b7100000000000000000000000000000000000000000000000000000000600052603260045260246000fd5b600081519050919050565b7f4e487b7100000000000000000000000000000000000000000000000000000000600052602260045260246000fd5b600060028204905060018216806103e257607f821691505b6020821081036103f5576103f461039b565b5b50919050565b60008190508160005260206000209050919050565b60006020601f8301049050919050565b600082821b905092915050565b60006008830261045d7fffffffffffffffffffffffffffffffffffffffffffffffffffffffffffffffff82610420565b6104678683610420565b95508019841693508086168417925050509392505050565b6000819050919050565b6000819050919050565b60006104ae6104a96104a48461047f565b610489565b61047f565b9050919050565b6000819050919050565b6104c883610493565b6104dc6104d4826104b5565b84845461042d565b825550505050565b600090565b6104f16104e4565b6104fc8184846104bf565b505050565b5b81811015610520576105156000826104e9565b600181019050610502565b5050565b601f82111561056557610536816103fb565b61053f84610410565b8101602085101561054e578190505b61056261055a85610410565b830182610501565b50505b505050565b600082821c905092915050565b60006105886000198460080261056a565b1980831691505092915050565b60006105a18383610577565b9150826002028217905092915050565b6105ba82610390565b67ffffffffffffffff8111156105d3576105d26100e7565b5b6105dd82546103ca565b6105e8828285610524565b600060209050601f83116001811461061b5760008415610609578287015190505b6106138582610595565b86555061067b565b601f198416610629866103fb565b60005b828110156106515784890151825560018201915060208501945060208101905061062c565b8683101561066e578489015161066a601f891682610577565b8355505b6001600288020188555050505b505050505050565b610da0806106926000396000f3fe608060405234801561001057600080fd5b50600436106100415760003560e01c80633477ee2e146100465780634717f97c14610077578063b384abef14610099575b600080fd5b610060600480360381019061005b91906106cb565b6100b5565b60405161006e929190610797565b60405180910390f35b61007f610171565b604051610090959493929190610ac2565b60405180910390f35b6100b360048036038101906100ae9190610b31565b610547565b005b600081815481106100c557600080fd5b90600052602060002090600402016000915090508060000180546100e890610ba0565b80601f016020809104026020016040519081016040528092919081815260200182805461011490610ba0565b80156101615780601f1061013657610100808354040283529160200191610161565b820191906000526020600020905b81548152906001019060200180831161014457829003601f168201915b5050505050908060010154905082565b6060600060608060606000808054905067ffffffffffffffff81111561019a57610199610bd1565b5b6040519080825280602002602001820160405280156101cd57816020015b60608152602001906001900390816101b85790505b50935060008054905067ffffffffffffffff8111156101ef576101ee610bd1565b5b60405190808252806020026020018201604052801561021d5781602001602082028036833780820191505090505b50925060008054905067ffffffffffffffff81111561023f5761023e610bd1565b5b60405190808252806020026020018201604052801561027257816020015b606081526020019060019003908161025d5790505b50915060005b60008054905081101561053e576000818154811061029957610298610c00565b5b906000526020600020906004020160000180546102b590610ba0565b80601f01602080910402602001604051908101604052809291908181526020018280546102e190610ba0565b801561032e5780601f106103035761010080835404028352916020019161032e565b820191906000526020600020905b81548152906001019060200180831161031157829003601f168201915b505050505085828151811061034657610345610c00565b5b60200260200101819052506000818154811061036557610364610c00565b5b90600052602060002090600402016001015484828151811061038a57610389610c00565b5b602002602001018181525050600081815481106103aa576103a9610c00565b5b906000526020600020906004020160030180548060200260200160405190810160405280929190818152602001828054801561040557602002820191906000526020600020905b8154815260200190600101908083116103f1575b505050505083828151811061041d5761041c610c00565b5b6020026020010181905250816000828154811061043d5761043c610c00565b5b9060005260206000209060040201600101541115610531576000818154811061046957610468610c00565b5b90600052602060002090600402016001015491506000818154811061049157610490610c00565b5b906000526020600020906004020160000180546104ad90610ba0565b80601f01602080910402602001604051908101604052809291908181526020018280546104d990610ba0565b80156105265780601f106104fb57610100808354040283529160200191610526565b820191906000526020600020905b81548152906001019060200180831161050957829003601f168201915b505050505096508195505b8080600101915050610278565b50509091929394565b600080549050821061058e576040517f08c379a000000000000000000000000000000000000000000000000000000000815260040161058590610c7b565b60405180910390fd5b60008083815481106105a3576105a2610c00565b5b9060005260206000209060040201905080600201600083815260200190815260200160002060009054906101000a900460ff1615610616576040517f08c379a000000000000000000000000000000000000000000000000000000000815260040161060d90610ce7565b60405180910390fd5b600181600201600084815260200190815260200160002060006101000a81548160ff02191690831515021790555060018160010160008282546106599190610d36565b9250508190555080600301829080600181540180825580915050600190039060005260206000200160009091909190915055505050565b600080fd5b6000819050919050565b6106a881610695565b81146106b357600080fd5b50565b6000813590506106c58161069f565b92915050565b6000602082840312156106e1576106e0610690565b5b60006106ef848285016106b6565b91505092915050565b600081519050919050565b600082825260208201905092915050565b60005b83811015610732578082015181840152602081019050610717565b60008484015250505050565b6000601f19601f8301169050919050565b600061075a826106f8565b6107648185610703565b9350610774818560208601610714565b61077d8161073e565b840191505092915050565b61079181610695565b82525050565b600060408201905081810360008301526107b1818561074f565b90506107c06020830184610788565b9392505050565b600081519050919050565b600082825260208201905092915050565b6000819050602082019050919050565b600082825260208201905092915050565b600061080f826106f8565b61081981856107f3565b9350610829818560208601610714565b6108328161073e565b840191505092915050565b60006108498383610804565b905092915050565b6000602082019050919050565b6000610869826107c7565b61087381856107d2565b935083602082028501610885856107e3565b8060005b858110156108c157848403895281516108a2858261083d565b94506108ad83610851565b925060208a01995050600181019050610889565b50829750879550505050505092915050565b600081519050919050565b600082825260208201905092915050565b6000819050602082019050919050565b61090881610695565b82525050565b600061091a83836108ff565b60208301905092915050565b6000602082019050919050565b600061093e826108d3565b61094881856108de565b9350610953836108ef565b8060005b8381101561098457815161096b888261090e565b975061097683610926565b925050600181019050610957565b5085935050505092915050565b600081519050919050565b600082825260208201905092915050565b6000819050602082019050919050565b600082825260208201905092915050565b60006109d9826108d3565b6109e381856109bd565b93506109ee836108ef565b8060005b83811015610a1f578151610a06888261090e565b9750610a1183610926565b9250506001810190506109f2565b5085935050505092915050565b6000610a3883836109ce565b905092915050565b6000602082019050919050565b6000610a5882610991565b610a62818561099c565b935083602082028501610a74856109ad565b8060005b85811015610ab05784840389528151610a918582610a2c565b9450610a9c83610a40565b925060208a01995050600181019050610a78565b50829750879550505050505092915050565b600060a0820190508181036000830152610adc818861074f565b9050610aeb6020830187610788565b8181036040830152610afd818661085e565b90508181036060830152610b118185610933565b90508181036080830152610b258184610a4d565b90509695505050505050565b60008060408385031215610b4857610b47610690565b5b6000610b56858286016106b6565b9250506020610b67858286016106b6565b9150509250929050565b7f4e487b7100000000000000000000000000000000000000000000000000000000600052602260045260246000fd5b60006002820490506001821680610bb857607f821691505b602082108103610bcb57610bca610b71565b5b50919050565b7f4e487b7100000000000000000000000000000000000000000000000000000000600052604160045260246000fd5b7f4e487b7100000000000000000000000000000000000000000000000000000000600052603260045260246000fd5b7f496e76616c69642063616e64696461746520696e646578000000000000000000600082015250565b6000610c65601783610703565b9150610c7082610c2f565b602082019050919050565b60006020820190508181036000830152610c9481610c58565b9050919050565b7f566f7465722068617320616c726561647920766f746564000000000000000000600082015250565b6000610cd1601783610703565b9150610cdc82610c9b565b602082019050919050565b60006020820190508181036000830152610d0081610cc4565b9050919050565b7f4e487b7100000000000000000000000000000000000000000000000000000000600052601160045260246000fd5b6000610d4182610695565b9150610d4c83610695565b9250828201905080821115610d6457610d63610d07565b5b9291505056fea2646970667358221220c283be5e427e3917d0b8de4c18c4bd421a3f1101ec6f985efb0c118d117b8a8864736f6c634300081c0033","opcodes":"PUSH1 0x80 PUSH1 0x40 MSTORE CALLVALUE DUP1 ISZERO PUSH2 0x10 JUMPI PUSH1 0x0 DUP1 REVERT JUMPDEST POP PUSH1 0x40 MLOAD PUSH2 0x1432 CODESIZE SUB DUP1 PUSH2 0x1432 DUP4 CODECOPY DUP2 DUP2 ADD PUSH1 0x40 MSTORE DUP2 ADD SWAP1 PUSH2 0x32 SWAP2 SWAP1 PUSH2 0x318 JUMP JUMPDEST PUSH1 0x0 JUMPDEST DUP2 MLOAD DUP2 LT ISZERO PUSH2 0xB6 JUMPI PUSH1 0x0 PUSH1 0x1 DUP2 PUSH1 0x1 DUP2 SLOAD ADD DUP1 DUP3 SSTORE DUP1 SWAP2 POP POP SUB SWAP1 PUSH1 0x0 MSTORE PUSH1 0x20 PUSH1 0x0 KECCAK256 SWAP1 POP POP DUP2 DUP2 DUP2 MLOAD DUP2 LT PUSH2 0x6F JUMPI PUSH2 0x6E PUSH2 0x361 JUMP JUMPDEST JUMPDEST PUSH1 0x20 MUL PUSH1 0x20 ADD ADD MLOAD PUSH1 0x0 DUP3 DUP2 SLOAD DUP2 LT PUSH2 0x8B JUMPI PUSH2 0x8A PUSH2 0x361 JUMP JUMPDEST JUMPDEST SWAP1 PUSH1 0x0 MSTORE PUSH1 0x20 PUSH1 0x0 KECCAK256 SWAP1 PUSH1 0x4 MUL ADD PUSH1 0x0 ADD SWAP1 DUP2 PUSH2 0xA8 SWAP2 SWAP1 PUSH2 0x5B1 JUMP JUMPDEST POP DUP1 DUP1 PUSH1 0x1 ADD SWAP2 POP POP PUSH2 0x35 JUMP JUMPDEST POP POP PUSH2 0x683 JUMP JUMPDEST PUSH1 0x0 PUSH1 0x40 MLOAD SWAP1 POP SWAP1 JUMP JUMPDEST PUSH1 0x0 DUP1 REVERT JUMPDEST PUSH1 0x0 DUP1 REVERT JUMPDEST PUSH1 0x0 DUP1 REVERT JUMPDEST PUSH1 0x0 PUSH1 0x1F NOT PUSH1 0x1F DUP4 ADD AND SWAP1 POP SWAP2 SWAP1 POP JUMP JUMPDEST PUSH32 0x4E487B7100000000000000000000000000000000000000000000000000000000 PUSH1 0x0 MSTORE PUSH1 0x41 PUSH1 0x4 MSTORE PUSH1 0x24 PUSH1 0x0 REVERT JUMPDEST PUSH2 0x11F DUP3 PUSH2 0xD6 JUMP JUMPDEST DUP2 ADD DUP2 DUP2 LT PUSH8 0xFFFFFFFFFFFFFFFF DUP3 GT OR ISZERO PUSH2 0x13E JUMPI PUSH2 0x13D PUSH2 0xE7 JUMP JUMPDEST JUMPDEST DUP1 PUSH1 0x40 MSTORE POP POP POP JUMP JUMPDEST PUSH1 0x0 PUSH2 0x151 PUSH2 0xBD JUMP JUMPDEST SWAP1 POP PUSH2 0x15D DUP3 DUP3 PUSH2 0x116 JUMP JUMPDEST SWAP2 SWAP1 POP JUMP JUMPDEST PUSH1 0x0 PUSH8 0xFFFFFFFFFFFFFFFF DUP3 GT ISZERO PUSH2 0x17D JUMPI PUSH2 0x17C PUSH2 0xE7 JUMP JUMPDEST JUMPDEST PUSH1 0x20 DUP3 MUL SWAP1 POP PUSH1 0x20 DUP2 ADD SWAP1 POP SWAP2 SWAP1 POP JUMP JUMPDEST PUSH1 0x0 DUP1 REVERT JUMPDEST PUSH1 0x0 DUP1 REVERT JUMPDEST PUSH1 0x0 PUSH8 0xFFFFFFFFFFFFFFFF DUP3 GT ISZERO PUSH2 0x1B3 JUMPI PUSH2 0x1B2 PUSH2 0xE7 JUMP JUMPDEST JUMPDEST PUSH2 0x1BC DUP3 PUSH2 0xD6 JUMP JUMPDEST SWAP1 POP PUSH1 0x20 DUP2 ADD SWAP1 POP SWAP2 SWAP1 POP JUMP JUMPDEST PUSH1 0x0 JUMPDEST DUP4 DUP2 LT ISZERO PUSH2 0x1E7 JUMPI DUP1 DUP3 ADD MLOAD DUP2 DUP5 ADD MSTORE PUSH1 0x20 DUP2 ADD SWAP1 POP PUSH2 0x1CC JUMP JUMPDEST PUSH1 0x0 DUP5 DUP5 ADD MSTORE POP POP POP POP JUMP JUMPDEST PUSH1 0x0 PUSH2 0x206 PUSH2 0x201 DUP5 PUSH2 0x198 JUMP JUMPDEST PUSH2 0x147 JUMP JUMPDEST SWAP1 POP DUP3 DUP2 MSTORE PUSH1 0x20 DUP2 ADD DUP5 DUP5 DUP5 ADD GT ISZERO PUSH2 0x222 JUMPI PUSH2 0x221 PUSH2 0x193 JUMP JUMPDEST JUMPDEST PUSH2 0x22D DUP5 DUP3 DUP6 PUSH2 0x1C9 JUMP JUMPDEST POP SWAP4 SWAP3 POP POP POP JUMP JUMPDEST PUSH1 0x0 DUP3 PUSH1 0x1F DUP4 ADD SLT PUSH2 0x24A JUMPI PUSH2 0x249 PUSH2 0xD1 JUMP JUMPDEST JUMPDEST DUP2 MLOAD PUSH2 0x25A DUP5 DUP3 PUSH1 0x20 DUP7 ADD PUSH2 0x1F3 JUMP JUMPDEST SWAP2 POP POP SWAP3 SWAP2 POP POP JUMP JUMPDEST PUSH1 0x0 PUSH2 0x276 PUSH2 0x271 DUP5 PUSH2 0x162 JUMP JUMPDEST PUSH2 0x147 JUMP JUMPDEST SWAP1 POP DUP1 DUP4 DUP3 MSTORE PUSH1 0x20 DUP3 ADD SWAP1 POP PUSH1 0x20 DUP5 MUL DUP4 ADD DUP6 DUP2 GT ISZERO PUSH2 0x299 JUMPI PUSH2 0x298 PUSH2 0x18E JUMP JUMPDEST JUMPDEST DUP4 JUMPDEST DUP2 DUP2 LT ISZERO PUSH2 0x2E0 JUMPI DUP1 MLOAD PUSH8 0xFFFFFFFFFFFFFFFF DUP2 GT ISZERO PUSH2 0x2BE JUMPI PUSH2 0x2BD PUSH2 0xD1 JUMP JUMPDEST JUMPDEST DUP1 DUP7 ADD PUSH2 0x2CB DUP10 DUP3 PUSH2 0x235 JUMP JUMPDEST DUP6 MSTORE PUSH1 0x20 DUP6 ADD SWAP5 POP POP POP PUSH1 0x20 DUP2 ADD SWAP1 POP PUSH2 0x29B JUMP JUMPDEST POP POP POP SWAP4 SWAP3 POP POP POP JUMP JUMPDEST PUSH1 0x0 DUP3 PUSH1 0x1F DUP4 ADD SLT PUSH2 0x2FF JUMPI PUSH2 0x2FE PUSH2 0xD1 JUMP JUMPDEST JUMPDEST DUP2 MLOAD PUSH2 0x30F DUP5 DUP3 PUSH1 0x20 DUP7 ADD PUSH2 0x263 JUMP JUMPDEST SWAP2 POP POP SWAP3 SWAP2 POP POP JUMP JUMPDEST PUSH1 0x0 PUSH1 0x20 DUP3 DUP5 SUB SLT ISZERO PUSH2 0x32E JUMPI PUSH2 0x32D PUSH2 0xC7 JUMP JUMPDEST JUMPDEST PUSH1 0x0 DUP3 ADD MLOAD PUSH8 0xFFFFFFFFFFFFFFFF DUP2 GT ISZERO PUSH2 0x34C JUMPI PUSH2 0x34B PUSH2 0xCC JUMP JUMPDEST JUMPDEST PUSH2 0x358 DUP5 DUP3 DUP6 ADD PUSH2 0x2EA JUMP JUMPDEST SWAP2 POP POP SWAP3 SWAP2 POP POP JUMP JUMPDEST PUSH32 0x4E487B7100000000000000000000000000000000000000000000000000000000 PUSH1 0x0 MSTORE PUSH1 0x32 PUSH1 0x4 MSTORE PUSH1 0x24 PUSH1 0x0 REVERT JUMPDEST PUSH1 0x0 DUP2 MLOAD SWAP1 POP SWAP2 SWAP1 POP JUMP JUMPDEST PUSH32 0x4E487B7100000000000000000000000000000000000000000000000000000000 PUSH1 0x0 MSTORE PUSH1 0x22 PUSH1 0x4 MSTORE PUSH1 0x24 PUSH1 0x0 REVERT JUMPDEST PUSH1 0x0 PUSH1 0x2 DUP3 DIV SWAP1 POP PUSH1 0x1 DUP3 AND DUP1 PUSH2 0x3E2 JUMPI PUSH1 0x7F DUP3 AND SWAP2 POP JUMPDEST PUSH1 0x20 DUP3 LT DUP2 SUB PUSH2 0x3F5 JUMPI PUSH2 0x3F4 PUSH2 0x39B JUMP JUMPDEST JUMPDEST POP SWAP2 SWAP1 POP JUMP JUMPDEST PUSH1 0x0 DUP2 SWAP1 POP DUP2 PUSH1 0x0 MSTORE PUSH1 0x20 PUSH1 0x0 KECCAK256 SWAP1 POP SWAP2 SWAP1 POP JUMP JUMPDEST PUSH1 0x0 PUSH1 0x20 PUSH1 0x1F DUP4 ADD DIV SWAP1 POP SWAP2 SWAP1 POP JUMP JUMPDEST PUSH1 0x0 DUP3 DUP3 SHL SWAP1 POP SWAP3 SWAP2 POP POP JUMP JUMPDEST PUSH1 0x0 PUSH1 0x8 DUP4 MUL PUSH2 0x45D PUSH32 0xFFFFFFFFFFFFFFFFFFFFFFFFFFFFFFFFFFFFFFFFFFFFFFFFFFFFFFFFFFFFFFFF DUP3 PUSH2 0x420 JUMP JUMPDEST PUSH2 0x467 DUP7 DUP4 PUSH2 0x420 JUMP JUMPDEST SWAP6 POP DUP1 NOT DUP5 AND SWAP4 POP DUP1 DUP7 AND DUP5 OR SWAP3 POP POP POP SWAP4 SWAP3 POP POP POP JUMP JUMPDEST PUSH1 0x0 DUP2 SWAP1 POP SWAP2 SWAP1 POP JUMP JUMPDEST PUSH1 0x0 DUP2 SWAP1 POP SWAP2 SWAP1 POP JUMP JUMPDEST PUSH1 0x0 PUSH2 0x4AE PUSH2 0x4A9 PUSH2 0x4A4 DUP5 PUSH2 0x47F JUMP JUMPDEST PUSH2 0x489 JUMP JUMPDEST PUSH2 0x47F JUMP JUMPDEST SWAP1 POP SWAP2 SWAP1 POP JUMP JUMPDEST PUSH1 0x0 DUP2 SWAP1 POP SWAP2 SWAP1 POP JUMP JUMPDEST PUSH2 0x4C8 DUP4 PUSH2 0x493 JUMP JUMPDEST PUSH2 0x4DC PUSH2 0x4D4 DUP3 PUSH2 0x4B5 JUMP JUMPDEST DUP5 DUP5 SLOAD PUSH2 0x42D JUMP JUMPDEST DUP3 SSTORE POP POP POP POP JUMP JUMPDEST PUSH1 0x0 SWAP1 JUMP JUMPDEST PUSH2 0x4F1 PUSH2 0x4E4 JUMP JUMPDEST PUSH2 0x4FC DUP2 DUP5 DUP5 PUSH2 0x4BF JUMP JUMPDEST POP POP POP JUMP JUMPDEST JUMPDEST DUP2 DUP2 LT ISZERO PUSH2 0x520 JUMPI PUSH2 0x515 PUSH1 0x0 DUP3 PUSH2 0x4E9 JUMP JUMPDEST PUSH1 0x1 DUP2 ADD SWAP1 POP PUSH2 0x502 JUMP JUMPDEST POP POP JUMP JUMPDEST PUSH1 0x1F DUP3 GT ISZERO PUSH2 0x565 JUMPI PUSH2 0x536 DUP2 PUSH2 0x3FB JUMP JUMPDEST PUSH2 0x53F DUP5 PUSH2 0x410 JUMP JUMPDEST DUP2 ADD PUSH1 0x20 DUP6 LT ISZERO PUSH2 0x54E JUMPI DUP2 SWAP1 POP JUMPDEST PUSH2 0x562 PUSH2 0x55A DUP6 PUSH2 0x410 JUMP JUMPDEST DUP4 ADD DUP3 PUSH2 0x501 JUMP JUMPDEST POP POP JUMPDEST POP POP POP JUMP JUMPDEST PUSH1 0x0 DUP3 DUP3 SHR SWAP1 POP SWAP3 SWAP2 POP POP JUMP JUMPDEST PUSH1 0x0 PUSH2 0x588 PUSH1 0x0 NOT DUP5 PUSH1 0x8 MUL PUSH2 0x56A JUMP JUMPDEST NOT DUP1 DUP4 AND SWAP2 POP POP SWAP3 SWAP2 POP POP JUMP JUMPDEST PUSH1 0x0 PUSH2 0x5A1 DUP4 DUP4 PUSH2 0x577 JUMP JUMPDEST SWAP2 POP DUP3 PUSH1 0x2 MUL DUP3 OR SWAP1 POP SWAP3 SWAP2 POP POP JUMP JUMPDEST PUSH2 0x5BA DUP3 PUSH2 0x390 JUMP JUMPDEST PUSH8 0xFFFFFFFFFFFFFFFF DUP2 GT ISZERO PUSH2 0x5D3 JUMPI PUSH2 0x5D2 PUSH2 0xE7 JUMP JUMPDEST JUMPDEST PUSH2 0x5DD DUP3 SLOAD PUSH2 0x3CA JUMP JUMPDEST PUSH2 0x5E8 DUP3 DUP3 DUP6 PUSH2 0x524 JUMP JUMPDEST PUSH1 0x0 PUSH1 0x20 SWAP1 POP PUSH1 0x1F DUP4 GT PUSH1 0x1 DUP2 EQ PUSH2 0x61B JUMPI PUSH1 0x0 DUP5 ISZERO PUSH2 0x609 JUMPI DUP3 DUP8 ADD MLOAD SWAP1 POP JUMPDEST PUSH2 0x613 DUP6 DUP3 PUSH2 0x595 JUMP JUMPDEST DUP7 SSTORE POP PUSH2 0x67B JUMP JUMPDEST PUSH1 0x1F NOT DUP5 AND PUSH2 0x629 DUP7 PUSH2 0x3FB JUMP JUMPDEST PUSH1 0x0 JUMPDEST DUP3 DUP2 LT ISZERO PUSH2 0x651 JUMPI DUP5 DUP10 ADD MLOAD DUP3 SSTORE PUSH1 0x1 DUP3 ADD SWAP2 POP PUSH1 0x20 DUP6 ADD SWAP5 POP PUSH1 0x20 DUP2 ADD SWAP1 POP PUSH2 0x62C JUMP JUMPDEST DUP7 DUP4 LT ISZERO PUSH2 0x66E JUMPI DUP5 DUP10 ADD MLOAD PUSH2 0x66A PUSH1 0x1F DUP10 AND DUP3 PUSH2 0x577 JUMP JUMPDEST DUP4 SSTORE POP JUMPDEST PUSH1 0x1 PUSH1 0x2 DUP9 MUL ADD DUP9 SSTORE POP POP POP JUMPDEST POP POP POP POP POP POP JUMP JUMPDEST PUSH2 0xDA0 DUP1 PUSH2 0x692 PUSH1 0x0 CODECOPY PUSH1 0x0 RETURN INVALID PUSH1 0x80 PUSH1 0x40 MSTORE CALLVALUE DUP1 ISZERO PUSH2 0x10 JUMPI PUSH1 0x0 DUP1 REVERT JUMPDEST POP PUSH1 0x4 CALLDATASIZE LT PUSH2 0x41 JUMPI PUSH1 0x0 CALLDATALOAD PUSH1 0xE0 SHR DUP1 PUSH4 0x3477EE2E EQ PUSH2 0x46 JUMPI DUP1 PUSH4 0x4717F97C EQ PUSH2 0x77 JUMPI DUP1 PUSH4 0xB384ABEF EQ PUSH2 0x99 JUMPI JUMPDEST PUSH1 0x0 DUP1 REVERT JUMPDEST PUSH2 0x60 PUSH1 0x4 DUP1 CALLDATASIZE SUB DUP2 ADD SWAP1 PUSH2 0x5B SWAP2 SWAP1 PUSH2 0x6CB JUMP JUMPDEST PUSH2 0xB5 JUMP JUMPDEST PUSH1 0x40 MLOAD PUSH2 0x6E SWAP3 SWAP2 SWAP1 PUSH2 0x797 JUMP JUMPDEST PUSH1 0x40 MLOAD DUP1 SWAP2 SUB SWAP1 RETURN JUMPDEST PUSH2 0x7F PUSH2 0x171 JUMP JUMPDEST PUSH1 0x40 MLOAD PUSH2 0x90 SWAP6 SWAP5 SWAP4 SWAP3 SWAP2 SWAP1 PUSH2 0xAC2 JUMP JUMPDEST PUSH1 0x40 MLOAD DUP1 SWAP2 SUB SWAP1 RETURN JUMPDEST PUSH2 0xB3 PUSH1 0x4 DUP1 CALLDATASIZE SUB DUP2 ADD SWAP1 PUSH2 0xAE SWAP2 SWAP1 PUSH2 0xB31 JUMP JUMPDEST PUSH2 0x547 JUMP JUMPDEST STOP JUMPDEST PUSH1 0x0 DUP2 DUP2 SLOAD DUP2 LT PUSH2 0xC5 JUMPI PUSH1 0x0 DUP1 REVERT JUMPDEST SWAP1 PUSH1 0x0 MSTORE PUSH1 0x20 PUSH1 0x0 KECCAK256 SWAP1 PUSH1 0x4 MUL ADD PUSH1 0x0 SWAP2 POP SWAP1 POP DUP1 PUSH1 0x0 ADD DUP1 SLOAD PUSH2 0xE8 SWAP1 PUSH2 0xBA0 JUMP JUMPDEST DUP1 PUSH1 0x1F ADD PUSH1 0x20 DUP1 SWAP2 DIV MUL PUSH1 0x20 ADD PUSH1 0x40 MLOAD SWAP1 DUP2 ADD PUSH1 0x40 MSTORE DUP1 SWAP3 SWAP2 SWAP1 DUP2 DUP2 MSTORE PUSH1 0x20 ADD DUP3 DUP1 SLOAD PUSH2 0x114 SWAP1 PUSH2 0xBA0 JUMP JUMPDEST DUP1 ISZERO PUSH2 0x161 JUMPI DUP1 PUSH1 0x1F LT PUSH2 0x136 JUMPI PUSH2 0x100 DUP1 DUP4 SLOAD DIV MUL DUP4 MSTORE SWAP2 PUSH1 0x20 ADD SWAP2 PUSH2 0x161 JUMP JUMPDEST DUP3 ADD SWAP2 SWAP1 PUSH1 0x0 MSTORE PUSH1 0x20 PUSH1 0x0 KECCAK256 SWAP1 JUMPDEST DUP2 SLOAD DUP2 MSTORE SWAP1 PUSH1 0x1 ADD SWAP1 PUSH1 0x20 ADD DUP1 DUP4 GT PUSH2 0x144 JUMPI DUP3 SWAP1 SUB PUSH1 0x1F AND DUP3 ADD SWAP2 JUMPDEST POP POP POP POP POP SWAP1 DUP1 PUSH1 0x1 ADD SLOAD SWAP1 POP DUP3 JUMP JUMPDEST PUSH1 0x60 PUSH1 0x0 PUSH1 0x60 DUP1 PUSH1 0x60 PUSH1 0x0 DUP1 DUP1 SLOAD SWAP1 POP PUSH8 0xFFFFFFFFFFFFFFFF DUP2 GT ISZERO PUSH2 0x19A JUMPI PUSH2 0x199 PUSH2 0xBD1 JUMP JUMPDEST JUMPDEST PUSH1 0x40 MLOAD SWAP1 DUP1 DUP3 MSTORE DUP1 PUSH1 0x20 MUL PUSH1 0x20 ADD DUP3 ADD PUSH1 0x40 MSTORE DUP1 ISZERO PUSH2 0x1CD JUMPI DUP2 PUSH1 0x20 ADD JUMPDEST PUSH1 0x60 DUP2 MSTORE PUSH1 0x20 ADD SWAP1 PUSH1 0x1 SWAP1 SUB SWAP1 DUP2 PUSH2 0x1B8 JUMPI SWAP1 POP JUMPDEST POP SWAP4 POP PUSH1 0x0 DUP1 SLOAD SWAP1 POP PUSH8 0xFFFFFFFFFFFFFFFF DUP2 GT ISZERO PUSH2 0x1EF JUMPI PUSH2 0x1EE PUSH2 0xBD1 JUMP JUMPDEST JUMPDEST PUSH1 0x40 MLOAD SWAP1 DUP1 DUP3 MSTORE DUP1 PUSH1 0x20 MUL PUSH1 0x20 ADD DUP3 ADD PUSH1 0x40 MSTORE DUP1 ISZERO PUSH2 0x21D JUMPI DUP2 PUSH1 0x20 ADD PUSH1 0x20 DUP3 MUL DUP1 CALLDATASIZE DUP4 CALLDATACOPY DUP1 DUP3 ADD SWAP2 POP POP SWAP1 POP JUMPDEST POP SWAP3 POP PUSH1 0x0 DUP1 SLOAD SWAP1 POP PUSH8 0xFFFFFFFFFFFFFFFF DUP2 GT ISZERO PUSH2 0x23F JUMPI PUSH2 0x23E PUSH2 0xBD1 JUMP JUMPDEST JUMPDEST PUSH1 0x40 MLOAD SWAP1 DUP1 DUP3 MSTORE DUP1 PUSH1 0x20 MUL PUSH1 0x20 ADD DUP3 ADD PUSH1 0x40 MSTORE DUP1 ISZERO PUSH2 0x272 JUMPI DUP2 PUSH1 0x20 ADD JUMPDEST PUSH1 0x60 DUP2 MSTORE PUSH1 0x20 ADD SWAP1 PUSH1 0x1 SWAP1 SUB SWAP1 DUP2 PUSH2 0x25D JUMPI SWAP1 POP JUMPDEST POP SWAP2 POP PUSH1 0x0 JUMPDEST PUSH1 0x0 DUP1 SLOAD SWAP1 POP DUP2 LT ISZERO PUSH2 0x53E JUMPI PUSH1 0x0 DUP2 DUP2 SLOAD DUP2 LT PUSH2 0x299 JUMPI PUSH2 0x298 PUSH2 0xC00 JUMP JUMPDEST JUMPDEST SWAP1 PUSH1 0x0 MSTORE PUSH1 0x20 PUSH1 0x0 KECCAK256 SWAP1 PUSH1 0x4 MUL ADD PUSH1 0x0 ADD DUP1 SLOAD PUSH2 0x2B5 SWAP1 PUSH2 0xBA0 JUMP JUMPDEST DUP1 PUSH1 0x1F ADD PUSH1 0x20 DUP1 SWAP2 DIV MUL PUSH1 0x20 ADD PUSH1 0x40 MLOAD SWAP1 DUP2 ADD PUSH1 0x40 MSTORE DUP1 SWAP3 SWAP2 SWAP1 DUP2 DUP2 MSTORE PUSH1 0x20 ADD DUP3 DUP1 SLOAD PUSH2 0x2E1 SWAP1 PUSH2 0xBA0 JUMP JUMPDEST DUP1 ISZERO PUSH2 0x32E JUMPI DUP1 PUSH1 0x1F LT PUSH2 0x303 JUMPI PUSH2 0x100 DUP1 DUP4 SLOAD DIV MUL DUP4 MSTORE SWAP2 PUSH1 0x20 ADD SWAP2 PUSH2 0x32E JUMP JUMPDEST DUP3 ADD SWAP2 SWAP1 PUSH1 0x0 MSTORE PUSH1 0x20 PUSH1 0x0 KECCAK256 SWAP1 JUMPDEST DUP2 SLOAD DUP2 MSTORE SWAP1 PUSH1 0x1 ADD SWAP1 PUSH1 0x20 ADD DUP1 DUP4 GT PUSH2 0x311 JUMPI DUP3 SWAP1 SUB PUSH1 0x1F AND DUP3 ADD SWAP2 JUMPDEST POP POP POP POP POP DUP6 DUP3 DUP2 MLOAD DUP2 LT PUSH2 0x346 JUMPI PUSH2 0x345 PUSH2 0xC00 JUMP JUMPDEST JUMPDEST PUSH1 0x20 MUL PUSH1 0x20 ADD ADD DUP2 SWAP1 MSTORE POP PUSH1 0x0 DUP2 DUP2 SLOAD DUP2 LT PUSH2 0x365 JUMPI PUSH2 0x364 PUSH2 0xC00 JUMP JUMPDEST JUMPDEST SWAP1 PUSH1 0x0 MSTORE PUSH1 0x20 PUSH1 0x0 KECCAK256 SWAP1 PUSH1 0x4 MUL ADD PUSH1 0x1 ADD SLOAD DUP5 DUP3 DUP2 MLOAD DUP2 LT PUSH2 0x38A JUMPI PUSH2 0x389 PUSH2 0xC00 JUMP JUMPDEST JUMPDEST PUSH1 0x20 MUL PUSH1 0x20 ADD ADD DUP2 DUP2 MSTORE POP POP PUSH1 0x0 DUP2 DUP2 SLOAD DUP2 LT PUSH2 0x3AA JUMPI PUSH2 0x3A9 PUSH2 0xC00 JUMP JUMPDEST JUMPDEST SWAP1 PUSH1 0x0 MSTORE PUSH1 0x20 PUSH1 0x0 KECCAK256 SWAP1 PUSH1 0x4 MUL ADD PUSH1 0x3 ADD DUP1 SLOAD DUP1 PUSH1 0x20 MUL PUSH1 0x20 ADD PUSH1 0x40 MLOAD SWAP1 DUP2 ADD PUSH1 0x40 MSTORE DUP1 SWAP3 SWAP2 SWAP1 DUP2 DUP2 MSTORE PUSH1 0x20 ADD DUP3 DUP1 SLOAD DUP1 ISZERO PUSH2 0x405 JUMPI PUSH1 0x20 MUL DUP3 ADD SWAP2 SWAP1 PUSH1 0x0 MSTORE PUSH1 0x20 PUSH1 0x0 KECCAK256 SWAP1 JUMPDEST DUP2 SLOAD DUP2 MSTORE PUSH1 0x20 ADD SWAP1 PUSH1 0x1 ADD SWAP1 DUP1 DUP4 GT PUSH2 0x3F1 JUMPI JUMPDEST POP POP POP POP POP DUP4 DUP3 DUP2 MLOAD DUP2 LT PUSH2 0x41D JUMPI PUSH2 0x41C PUSH2 0xC00 JUMP JUMPDEST JUMPDEST PUSH1 0x20 MUL PUSH1 0x20 ADD ADD DUP2 SWAP1 MSTORE POP DUP2 PUSH1 0x0 DUP3 DUP2 SLOAD DUP2 LT PUSH2 0x43D JUMPI PUSH2 0x43C PUSH2 0xC00 JUMP JUMPDEST JUMPDEST SWAP1 PUSH1 0x0 MSTORE PUSH1 0x20 PUSH1 0x0 KECCAK256 SWAP1 PUSH1 0x4 MUL ADD PUSH1 0x1 ADD SLOAD GT ISZERO PUSH2 0x531 JUMPI PUSH1 0x0 DUP2 DUP2 SLOAD DUP2 LT PUSH2 0x469 JUMPI PUSH2 0x468 PUSH2 0xC00 JUMP JUMPDEST JUMPDEST SWAP1 PUSH1 0x0 MSTORE PUSH1 0x20 PUSH1 0x0 KECCAK256 SWAP1 PUSH1 0x4 MUL ADD PUSH1 0x1 ADD SLOAD SWAP2 POP PUSH1 0x0 DUP2 DUP2 SLOAD DUP2 LT PUSH2 0x491 JUMPI PUSH2 0x490 PUSH2 0xC00 JUMP JUMPDEST JUMPDEST SWAP1 PUSH1 0x0 MSTORE PUSH1 0x20 PUSH1 0x0 KECCAK256 SWAP1 PUSH1 0x4 MUL ADD PUSH1 0x0 ADD DUP1 SLOAD PUSH2 0x4AD SWAP1 PUSH2 0xBA0 JUMP JUMPDEST DUP1 PUSH1 0x1F ADD PUSH1 0x20 DUP1 SWAP2 DIV MUL PUSH1 0x20 ADD PUSH1 0x40 MLOAD SWAP1 DUP2 ADD PUSH1 0x40 MSTORE DUP1 SWAP3 SWAP2 SWAP1 DUP2 DUP2 MSTORE PUSH1 0x20 ADD DUP3 DUP1 SLOAD PUSH2 0x4D9 SWAP1 PUSH2 0xBA0 JUMP JUMPDEST DUP1 ISZERO PUSH2 0x526 JUMPI DUP1 PUSH1 0x1F LT PUSH2 0x4FB JUMPI PUSH2 0x100 DUP1 DUP4 SLOAD DIV MUL DUP4 MSTORE SWAP2 PUSH1 0x20 ADD SWAP2 PUSH2 0x526 JUMP JUMPDEST DUP3 ADD SWAP2 SWAP1 PUSH1 0x0 MSTORE PUSH1 0x20 PUSH1 0x0 KECCAK256 SWAP1 JUMPDEST DUP2 SLOAD DUP2 MSTORE SWAP1 PUSH1 0x1 ADD SWAP1 PUSH1 0x20 ADD DUP1 DUP4 GT PUSH2 0x509 JUMPI DUP3 SWAP1 SUB PUSH1 0x1F AND DUP3 ADD SWAP2 JUMPDEST POP POP POP POP POP SWAP7 POP DUP2 SWAP6 POP JUMPDEST DUP1 DUP1 PUSH1 0x1 ADD SWAP2 POP POP PUSH2 0x278 JUMP JUMPDEST POP POP SWAP1 SWAP2 SWAP3 SWAP4 SWAP5 JUMP JUMPDEST PUSH1 0x0 DUP1 SLOAD SWAP1 POP DUP3 LT PUSH2 0x58E JUMPI PUSH1 0x40 MLOAD PUSH32 0x8C379A000000000000000000000000000000000000000000000000000000000 DUP2 MSTORE PUSH1 0x4 ADD PUSH2 0x585 SWAP1 PUSH2 0xC7B JUMP JUMPDEST PUSH1 0x40 MLOAD DUP1 SWAP2 SUB SWAP1 REVERT JUMPDEST PUSH1 0x0 DUP1 DUP4 DUP2 SLOAD DUP2 LT PUSH2 0x5A3 JUMPI PUSH2 0x5A2 PUSH2 0xC00 JUMP JUMPDEST JUMPDEST SWAP1 PUSH1 0x0 MSTORE PUSH1 0x20 PUSH1 0x0 KECCAK256 SWAP1 PUSH1 0x4 MUL ADD SWAP1 POP DUP1 PUSH1 0x2 ADD PUSH1 0x0 DUP4 DUP2 MSTORE PUSH1 0x20 ADD SWAP1 DUP2 MSTORE PUSH1 0x20 ADD PUSH1 0x0 KECCAK256 PUSH1 0x0 SWAP1 SLOAD SWAP1 PUSH2 0x100 EXP SWAP1 DIV PUSH1 0xFF AND ISZERO PUSH2 0x616 JUMPI PUSH1 0x40 MLOAD PUSH32 0x8C379A000000000000000000000000000000000000000000000000000000000 DUP2 MSTORE PUSH1 0x4 ADD PUSH2 0x60D SWAP1 PUSH2 0xCE7 JUMP JUMPDEST PUSH1 0x40 MLOAD DUP1 SWAP2 SUB SWAP1 REVERT JUMPDEST PUSH1 0x1 DUP2 PUSH1 0x2 ADD PUSH1 0x0 DUP5 DUP2 MSTORE PUSH1 0x20 ADD SWAP1 DUP2 MSTORE PUSH1 0x20 ADD PUSH1 0x0 KECCAK256 PUSH1 0x0 PUSH2 0x100 EXP DUP2 SLOAD DUP2 PUSH1 0xFF MUL NOT AND SWAP1 DUP4 ISZERO ISZERO MUL OR SWAP1 SSTORE POP PUSH1 0x1 DUP2 PUSH1 0x1 ADD PUSH1 0x0 DUP3 DUP3 SLOAD PUSH2 0x659 SWAP2 SWAP1 PUSH2 0xD36 JUMP JUMPDEST SWAP3 POP POP DUP2 SWAP1 SSTORE POP DUP1 PUSH1 0x3 ADD DUP3 SWAP1 DUP1 PUSH1 0x1 DUP2 SLOAD ADD DUP1 DUP3 SSTORE DUP1 SWAP2 POP POP PUSH1 0x1 SWAP1 SUB SWAP1 PUSH1 0x0 MSTORE PUSH1 0x20 PUSH1 0x0 KECCAK256 ADD PUSH1 0x0 SWAP1 SWAP2 SWAP1 SWAP2 SWAP1 SWAP2 POP SSTORE POP POP POP JUMP JUMPDEST PUSH1 0x0 DUP1 REVERT JUMPDEST PUSH1 0x0 DUP2 SWAP1 POP SWAP2 SWAP1 POP JUMP JUMPDEST PUSH2 0x6A8 DUP2 PUSH2 0x695 JUMP JUMPDEST DUP2 EQ PUSH2 0x6B3 JUMPI PUSH1 0x0 DUP1 REVERT JUMPDEST POP JUMP JUMPDEST PUSH1 0x0 DUP2 CALLDATALOAD SWAP1 POP PUSH2 0x6C5 DUP2 PUSH2 0x69F JUMP JUMPDEST SWAP3 SWAP2 POP POP JUMP JUMPDEST PUSH1 0x0 PUSH1 0x20 DUP3 DUP5 SUB SLT ISZERO PUSH2 0x6E1 JUMPI PUSH2 0x6E0 PUSH2 0x690 JUMP JUMPDEST JUMPDEST PUSH1 0x0 PUSH2 0x6EF DUP5 DUP3 DUP6 ADD PUSH2 0x6B6 JUMP JUMPDEST SWAP2 POP POP SWAP3 SWAP2 POP POP JUMP JUMPDEST PUSH1 0x0 DUP2 MLOAD SWAP1 POP SWAP2 SWAP1 POP JUMP JUMPDEST PUSH1 0x0 DUP3 DUP3 MSTORE PUSH1 0x20 DUP3 ADD SWAP1 POP SWAP3 SWAP2 POP POP JUMP JUMPDEST PUSH1 0x0 JUMPDEST DUP4 DUP2 LT ISZERO PUSH2 0x732 JUMPI DUP1 DUP3 ADD MLOAD DUP2 DUP5 ADD MSTORE PUSH1 0x20 DUP2 ADD SWAP1 POP PUSH2 0x717 JUMP JUMPDEST PUSH1 0x0 DUP5 DUP5 ADD MSTORE POP POP POP POP JUMP JUMPDEST PUSH1 0x0 PUSH1 0x1F NOT PUSH1 0x1F DUP4 ADD AND SWAP1 POP SWAP2 SWAP1 POP JUMP JUMPDEST PUSH1 0x0 PUSH2 0x75A DUP3 PUSH2 0x6F8 JUMP JUMPDEST PUSH2 0x764 DUP2 DUP6 PUSH2 0x703 JUMP JUMPDEST SWAP4 POP PUSH2 0x774 DUP2 DUP6 PUSH1 0x20 DUP7 ADD PUSH2 0x714 JUMP JUMPDEST PUSH2 0x77D DUP2 PUSH2 0x73E JUMP JUMPDEST DUP5 ADD SWAP2 POP POP SWAP3 SWAP2 POP POP JUMP JUMPDEST PUSH2 0x791 DUP2 PUSH2 0x695 JUMP JUMPDEST DUP3 MSTORE POP POP JUMP JUMPDEST PUSH1 0x0 PUSH1 0x40 DUP3 ADD SWAP1 POP DUP2 DUP2 SUB PUSH1 0x0 DUP4 ADD MSTORE PUSH2 0x7B1 DUP2 DUP6 PUSH2 0x74F JUMP JUMPDEST SWAP1 POP PUSH2 0x7C0 PUSH1 0x20 DUP4 ADD DUP5 PUSH2 0x788 JUMP JUMPDEST SWAP4 SWAP3 POP POP POP JUMP JUMPDEST PUSH1 0x0 DUP2 MLOAD SWAP1 POP SWAP2 SWAP1 POP JUMP JUMPDEST PUSH1 0x0 DUP3 DUP3 MSTORE PUSH1 0x20 DUP3 ADD SWAP1 POP SWAP3 SWAP2 POP POP JUMP JUMPDEST PUSH1 0x0 DUP2 SWAP1 POP PUSH1 0x20 DUP3 ADD SWAP1 POP SWAP2 SWAP1 POP JUMP JUMPDEST PUSH1 0x0 DUP3 DUP3 MSTORE PUSH1 0x20 DUP3 ADD SWAP1 POP SWAP3 SWAP2 POP POP JUMP JUMPDEST PUSH1 0x0 PUSH2 0x80F DUP3 PUSH2 0x6F8 JUMP JUMPDEST PUSH2 0x819 DUP2 DUP6 PUSH2 0x7F3 JUMP JUMPDEST SWAP4 POP PUSH2 0x829 DUP2 DUP6 PUSH1 0x20 DUP7 ADD PUSH2 0x714 JUMP JUMPDEST PUSH2 0x832 DUP2 PUSH2 0x73E JUMP JUMPDEST DUP5 ADD SWAP2 POP POP SWAP3 SWAP2 POP POP JUMP JUMPDEST PUSH1 0x0 PUSH2 0x849 DUP4 DUP4 PUSH2 0x804 JUMP JUMPDEST SWAP1 POP SWAP3 SWAP2 POP POP JUMP JUMPDEST PUSH1 0x0 PUSH1 0x20 DUP3 ADD SWAP1 POP SWAP2 SWAP1 POP JUMP JUMPDEST PUSH1 0x0 PUSH2 0x869 DUP3 PUSH2 0x7C7 JUMP JUMPDEST PUSH2 0x873 DUP2 DUP6 PUSH2 0x7D2 JUMP JUMPDEST SWAP4 POP DUP4 PUSH1 0x20 DUP3 MUL DUP6 ADD PUSH2 0x885 DUP6 PUSH2 0x7E3 JUMP JUMPDEST DUP1 PUSH1 0x0 JUMPDEST DUP6 DUP2 LT ISZERO PUSH2 0x8C1 JUMPI DUP5 DUP5 SUB DUP10 MSTORE DUP2 MLOAD PUSH2 0x8A2 DUP6 DUP3 PUSH2 0x83D JUMP JUMPDEST SWAP5 POP PUSH2 0x8AD DUP4 PUSH2 0x851 JUMP JUMPDEST SWAP3 POP PUSH1 0x20 DUP11 ADD SWAP10 POP POP PUSH1 0x1 DUP2 ADD SWAP1 POP PUSH2 0x889 JUMP JUMPDEST POP DUP3 SWAP8 POP DUP8 SWAP6 POP POP POP POP POP POP SWAP3 SWAP2 POP POP JUMP JUMPDEST PUSH1 0x0 DUP2 MLOAD SWAP1 POP SWAP2 SWAP1 POP JUMP JUMPDEST PUSH1 0x0 DUP3 DUP3 MSTORE PUSH1 0x20 DUP3 ADD SWAP1 POP SWAP3 SWAP2 POP POP JUMP JUMPDEST PUSH1 0x0 DUP2 SWAP1 POP PUSH1 0x20 DUP3 ADD SWAP1 POP SWAP2 SWAP1 POP JUMP JUMPDEST PUSH2 0x908 DUP2 PUSH2 0x695 JUMP JUMPDEST DUP3 MSTORE POP POP JUMP JUMPDEST PUSH1 0x0 PUSH2 0x91A DUP4 DUP4 PUSH2 0x8FF JUMP JUMPDEST PUSH1 0x20 DUP4 ADD SWAP1 POP SWAP3 SWAP2 POP POP JUMP JUMPDEST PUSH1 0x0 PUSH1 0x20 DUP3 ADD SWAP1 POP SWAP2 SWAP1 POP JUMP JUMPDEST PUSH1 0x0 PUSH2 0x93E DUP3 PUSH2 0x8D3 JUMP JUMPDEST PUSH2 0x948 DUP2 DUP6 PUSH2 0x8DE JUMP JUMPDEST SWAP4 POP PUSH2 0x953 DUP4 PUSH2 0x8EF JUMP JUMPDEST DUP1 PUSH1 0x0 JUMPDEST DUP4 DUP2 LT ISZERO PUSH2 0x984 JUMPI DUP2 MLOAD PUSH2 0x96B DUP9 DUP3 PUSH2 0x90E JUMP JUMPDEST SWAP8 POP PUSH2 0x976 DUP4 PUSH2 0x926 JUMP JUMPDEST SWAP3 POP POP PUSH1 0x1 DUP2 ADD SWAP1 POP PUSH2 0x957 JUMP JUMPDEST POP DUP6 SWAP4 POP POP POP POP SWAP3 SWAP2 POP POP JUMP JUMPDEST PUSH1 0x0 DUP2 MLOAD SWAP1 POP SWAP2 SWAP1 POP JUMP JUMPDEST PUSH1 0x0 DUP3 DUP3 MSTORE PUSH1 0x20 DUP3 ADD SWAP1 POP SWAP3 SWAP2 POP POP JUMP JUMPDEST PUSH1 0x0 DUP2 SWAP1 POP PUSH1 0x20 DUP3 ADD SWAP1 POP SWAP2 SWAP1 POP JUMP JUMPDEST PUSH1 0x0 DUP3 DUP3 MSTORE PUSH1 0x20 DUP3 ADD SWAP1 POP SWAP3 SWAP2 POP POP JUMP JUMPDEST PUSH1 0x0 PUSH2 0x9D9 DUP3 PUSH2 0x8D3 JUMP JUMPDEST PUSH2 0x9E3 DUP2 DUP6 PUSH2 0x9BD JUMP JUMPDEST SWAP4 POP PUSH2 0x9EE DUP4 PUSH2 0x8EF JUMP JUMPDEST DUP1 PUSH1 0x0 JUMPDEST DUP4 DUP2 LT ISZERO PUSH2 0xA1F JUMPI DUP2 MLOAD PUSH2 0xA06 DUP9 DUP3 PUSH2 0x90E JUMP JUMPDEST SWAP8 POP PUSH2 0xA11 DUP4 PUSH2 0x926 JUMP JUMPDEST SWAP3 POP POP PUSH1 0x1 DUP2 ADD SWAP1 POP PUSH2 0x9F2 JUMP JUMPDEST POP DUP6 SWAP4 POP POP POP POP SWAP3 SWAP2 POP POP JUMP JUMPDEST PUSH1 0x0 PUSH2 0xA38 DUP4 DUP4 PUSH2 0x9CE JUMP JUMPDEST SWAP1 POP SWAP3 SWAP2 POP POP JUMP JUMPDEST PUSH1 0x0 PUSH1 0x20 DUP3 ADD SWAP1 POP SWAP2 SWAP1 POP JUMP JUMPDEST PUSH1 0x0 PUSH2 0xA58 DUP3 PUSH2 0x991 JUMP JUMPDEST PUSH2 0xA62 DUP2 DUP6 PUSH2 0x99C JUMP JUMPDEST SWAP4 POP DUP4 PUSH1 0x20 DUP3 MUL DUP6 ADD PUSH2 0xA74 DUP6 PUSH2 0x9AD JUMP JUMPDEST DUP1 PUSH1 0x0 JUMPDEST DUP6 DUP2 LT ISZERO PUSH2 0xAB0 JUMPI DUP5 DUP5 SUB DUP10 MSTORE DUP2 MLOAD PUSH2 0xA91 DUP6 DUP3 PUSH2 0xA2C JUMP JUMPDEST SWAP5 POP PUSH2 0xA9C DUP4 PUSH2 0xA40 JUMP JUMPDEST SWAP3 POP PUSH1 0x20 DUP11 ADD SWAP10 POP POP PUSH1 0x1 DUP2 ADD SWAP1 POP PUSH2 0xA78 JUMP JUMPDEST POP DUP3 SWAP8 POP DUP8 SWAP6 POP POP POP POP POP POP SWAP3 SWAP2 POP POP JUMP JUMPDEST PUSH1 0x0 PUSH1 0xA0 DUP3 ADD SWAP1 POP DUP2 DUP2 SUB PUSH1 0x0 DUP4 ADD MSTORE PUSH2 0xADC DUP2 DUP9 PUSH2 0x74F JUMP JUMPDEST SWAP1 POP PUSH2 0xAEB PUSH1 0x20 DUP4 ADD DUP8 PUSH2 0x788 JUMP JUMPDEST DUP2 DUP2 SUB PUSH1 0x40 DUP4 ADD MSTORE PUSH2 0xAFD DUP2 DUP7 PUSH2 0x85E JUMP JUMPDEST SWAP1 POP DUP2 DUP2 SUB PUSH1 0x60 DUP4 ADD MSTORE PUSH2 0xB11 DUP2 DUP6 PUSH2 0x933 JUMP JUMPDEST SWAP1 POP DUP2 DUP2 SUB PUSH1 0x80 DUP4 ADD MSTORE PUSH2 0xB25 DUP2 DUP5 PUSH2 0xA4D JUMP JUMPDEST SWAP1 POP SWAP7 SWAP6 POP POP POP POP POP POP JUMP JUMPDEST PUSH1 0x0 DUP1 PUSH1 0x40 DUP4 DUP6 SUB SLT ISZERO PUSH2 0xB48 JUMPI PUSH2 0xB47 PUSH2 0x690 JUMP JUMPDEST JUMPDEST PUSH1 0x0 PUSH2 0xB56 DUP6 DUP3 DUP7 ADD PUSH2 0x6B6 JUMP JUMPDEST SWAP3 POP POP PUSH1 0x20 PUSH2 0xB67 DUP6 DUP3 DUP7 ADD PUSH2 0x6B6 JUMP JUMPDEST SWAP2 POP POP SWAP3 POP SWAP3 SWAP1 POP JUMP JUMPDEST PUSH32 0x4E487B7100000000000000000000000000000000000000000000000000000000 PUSH1 0x0 MSTORE PUSH1 0x22 PUSH1 0x4 MSTORE PUSH1 0x24 PUSH1 0x0 REVERT JUMPDEST PUSH1 0x0 PUSH1 0x2 DUP3 DIV SWAP1 POP PUSH1 0x1 DUP3 AND DUP1 PUSH2 0xBB8 JUMPI PUSH1 0x7F DUP3 AND SWAP2 POP JUMPDEST PUSH1 0x20 DUP3 LT DUP2 SUB PUSH2 0xBCB JUMPI PUSH2 0xBCA PUSH2 0xB71 JUMP JUMPDEST JUMPDEST POP SWAP2 SWAP1 POP JUMP JUMPDEST PUSH32 0x4E487B7100000000000000000000000000000000000000000000000000000000 PUSH1 0x0 MSTORE PUSH1 0x41 PUSH1 0x4 MSTORE PUSH1 0x24 PUSH1 0x0 REVERT JUMPDEST PUSH32 0x4E487B7100000000000000000000000000000000000000000000000000000000 PUSH1 0x0 MSTORE PUSH1 0x32 PUSH1 0x4 MSTORE PUSH1 0x24 PUSH1 0x0 REVERT JUMPDEST PUSH32 0x496E76616C69642063616E64696461746520696E646578000000000000000000 PUSH1 0x0 DUP3 ADD MSTORE POP JUMP JUMPDEST PUSH1 0x0 PUSH2 0xC65 PUSH1 0x17 DUP4 PUSH2 0x703 JUMP JUMPDEST SWAP2 POP PUSH2 0xC70 DUP3 PUSH2 0xC2F JUMP JUMPDEST PUSH1 0x20 DUP3 ADD SWAP1 POP SWAP2 SWAP1 POP JUMP JUMPDEST PUSH1 0x0 PUSH1 0x20 DUP3 ADD SWAP1 POP DUP2 DUP2 SUB PUSH1 0x0 DUP4 ADD MSTORE PUSH2 0xC94 DUP2 PUSH2 0xC58 JUMP JUMPDEST SWAP1 POP SWAP2 SWAP1 POP JUMP JUMPDEST PUSH32 0x566F7465722068617320616C726561647920766F746564000000000000000000 PUSH1 0x0 DUP3 ADD MSTORE POP JUMP JUMPDEST PUSH1 0x0 PUSH2 0xCD1 PUSH1 0x17 DUP4 PUSH2 0x703 JUMP JUMPDEST SWAP2 POP PUSH2 0xCDC DUP3 PUSH2 0xC9B JUMP JUMPDEST PUSH1 0x20 DUP3 ADD SWAP1 POP SWAP2 SWAP1 POP JUMP JUMPDEST PUSH1 0x0 PUSH1 0x20 DUP3 ADD SWAP1 POP DUP2 DUP2 SUB PUSH1 0x0 DUP4 ADD MSTORE PUSH2 0xD00 DUP2 PUSH2 0xCC4 JUMP JUMPDEST SWAP1 POP SWAP2 SWAP1 POP JUMP JUMPDEST PUSH32 0x4E487B7100000000000000000000000000000000000000000000000000000000 PUSH1 0x0 MSTORE PUSH1 0x11 PUSH1 0x4 MSTORE PUSH1 0x24 PUSH1 0x0 REVERT JUMPDEST PUSH1 0x0 PUSH2 0xD41 DUP3 PUSH2 0x695 JUMP JUMPDEST SWAP2 POP PUSH2 0xD4C DUP4 PUSH2 0x695 JUMP JUMPDEST SWAP3 POP DUP3 DUP3 ADD SWAP1 POP DUP1 DUP3 GT ISZERO PUSH2 0xD64 JUMPI PUSH2 0xD63 PUSH2 0xD07 JUMP JUMPDEST JUMPDEST SWAP3 SWAP2 POP POP JUMP INVALID LOG2 PUSH5 0x6970667358 0x22 SLT KECCAK256 0xC2 DUP4 0xBE MCOPY TIMESTAMP PUSH31 0x3917D0B8DE4C18C4BD421A3F1101EC6F985EFB0C118D117B8A8864736F6C63 NUMBER STOP ADDMOD SHR STOP CALLER "},"methodIdentifiers":{"candidates(uint256)":"3477ee2e","getResults()":"4717f97c","vote(uint256,uint256)":"b384abef"}}}}}