{
  "_format": "hh-sol-artifact-1",
  "contractName": "VotingUnoptimized",
  "sourceName": "contracts/VotingUnoptimized.sol",
  "abi": [
    {
      "inputs": [
        {
          "internalType": "string[]",
          "name": "_candidateNames",
          "type": "string[]"
        }
      ],
      "stateMutability": "nonpayable",
      "type": "constructor"
    },
    {
      "inputs": [
        {
          "internalType": "uint256",
          "name": "",
          "type": "uint256"
        }
      ],
      "name": "candidates",
      "outputs": [
        {
          "internalType": "string",
          "name": "name",
          "type": "string"
        },
        {
          "internalType": "uint256",
          "name": "voteCount",
          "type": "uint256"
        }
      ],
      "stateMutability": "view",
      "type": "function"
    },
    {
      "inputs": [],
      "name": "getResults",
      "outputs": [
        {
          "internalType": "string",
          "name": "winnerName",
          "type": "string"
        },
        {
          "internalType": "uint256",
          "name": "winnerVotes",
          "type": "uint256"
        },
        {
          "internalType": "string[]",
          "name": "candidateNames",
          "type": "string[]"
        },
        {
          "internalType": "uint256[]",
          "name": "voteCounts",
          "type": "uint256[]"
        },
        {
          "internalType": "uint256[][]",
          "name": "allVoters",
          "type": "uint256[][]"
        }
      ],
      "stateMutability": "view",
      "type": "function"
    },
    {
      "inputs": [
        {
          "internalType": "uint256",
          "name": "candidateIndex",
          "type": "uint256"
        },
        {
          "internalType": "uint256",
          "name": "voterId",
          "type": "uint256"
        }
      ],
      "name": "vote",
      "outputs": [],
      "stateMutability": "nonpayable",
      "type": "function"
    }
  ],
  "bytecode": "0x608060405234801561001057600080fd5b5060405161143238038061143283398181016040528101906100329190610318565b60005b81518110156100b65760006001816001815401808255809150500390600052602060002090505081818151811061006f5761006e610361565b5b60200260200101516000828154811061008b5761008a610361565b5b906000526020600020906004020160000190816100a891906105b1565b508080600101915050610035565b5050610683565b6000604051905090565b600080fd5b600080fd5b600080fd5b6000601f19601f8301169050919050565b7f4e487b7100000000000000000000000000000000000000000000000000000000600052604160045260246000fd5b61011f826100d6565b810181811067ffffffffffffffff8211171561013e5761013d6100e7565b5b80604052505050565b60006101516100bd565b905061015d8282610116565b919050565b600067ffffffffffffffff82111561017d5761017c6100e7565b5b602082029050602081019050919050565b600080fd5b600080fd5b600067ffffffffffffffff8211156101b3576101b26100e7565b5b6101bc826100d6565b9050602081019050919050565b60005b838110156101e75780820151818401526020810190506101cc565b60008484015250505050565b600061020661020184610198565b610147565b90508281526020810184848401111561022257610221610193565b5b61022d8482856101c9565b509392505050565b600082601f83011261024a576102496100d1565b5b815161025a8482602086016101f3565b91505092915050565b600061027661027184610162565b610147565b905080838252602082019050602084028301858111156102995761029861018e565b5b835b818110156102e057805167ffffffffffffffff8111156102be576102bd6100d1565b5b8086016102cb8982610235565b8552602085019450505060208101905061029b565b5050509392505050565b600082601f8301126102ff576102fe6100d1565b5b815161030f848260208601610263565b91505092915050565b60006020828403121561032e5761032d6100c7565b5b600082015167ffffffffffffffff81111561034c5761034b6100cc565b5b610358848285016102ea565b91505092915050565b7f4e487b7100000000000000000000000000000000000000000000000000000000600052603260045260246000fd5b600081519050919050565b7f4e487b7100000000000000000000000000000000000000000000000000000000600052602260045260246000fd5b600060028204905060018216806103e257607f821691505b6020821081036103f5576103f461039b565b5b50919050565b60008190508160005260206000209050919050565b60006020601f8301049050919050565b600082821b905092915050565b60006008830261045d7fffffffffffffffffffffffffffffffffffffffffffffffffffffffffffffffff82610420565b6104678683610420565b95508019841693508086168417925050509392505050565b6000819050919050565b6000819050919050565b60006104ae6104a96104a48461047f565b610489565b61047f565b9050919050565b6000819050919050565b6104c883610493565b6104dc6104d4826104b5565b84845461042d565b825550505050565b600090565b6104f16104e4565b6104fc8184846104bf565b505050565b5b81811015610520576105156000826104e9565b600181019050610502565b5050565b601f82111561056557610536816103fb565b61053f84610410565b8101602085101561054e578190505b61056261055a85610410565b830182610501565b50505b505050565b600082821c905092915050565b60006105886000198460080261056a565b1980831691505092915050565b60006105a18383610577565b9150826002028217905092915050565b6105ba82610390565b67ffffffffffffffff8111156105d3576105d26100e7565b5b6105dd82546103ca565b6105e8828285610524565b600060209050601f83116001811461061b5760008415610609578287015190505b6106138582610595565b86555061067b565b601f198416610629866103fb565b60005b828110156106515784890151825560018201915060208501945060208101905061062c565b8683101561066e578489015161066a601f891682610577565b8355505b6001600288020188555050505b505050505050565b610da0806106926000396000f3fe608060405234801561001057600080fd5b50600436106100415760003560e01c80633477ee2e146100465780634717f97c14610077578063b384abef14610099575b600080fd5b610060600480360381019061005b91906106cb565b6100b5565b60405161006e929190610797565b60405180910390f35b61007f610171565b604051610090959493929190610ac2565b60405180910390f35b6100b360048036038101906100ae9190610b31565b610547565b005b600081815481106100c557600080fd5b90600052602060002090600402016000915090508060000180546100e890610ba0565b80601f016020809104026020016040519081016040528092919081815260200182805461011490610ba0565b80156101615780601f1061013657610100808354040283529160200191610161565b820191906000526020600020905b81548152906001019060200180831161014457829003601f168201915b5050505050908060010154905082565b6060600060608060606000808054905067ffffffffffffffff81111561019a57610199610bd1565b5b6040519080825280602002602001820160405280156101cd57816020015b60608152602001906001900390816101b85790505b50935060008054905067ffffffffffffffff8111156101ef576101ee610bd1565b5b60405190808252806020026020018201604052801561021d5781602001602082028036833780820191505090505b50925060008054905067ffffffffffffffff81111561023f5761023e610bd1565b5b60405190808252806020026020018201604052801561027257816020015b606081526020019060019003908161025d5790505b50915060005b60008054905081101561053e576000818154811061029957610298610c00565b5b906000526020600020906004020160000180546102b590610ba0565b80601f01602080910402602001604051908101604052809291908181526020018280546102e190610ba0565b801561032e5780601f106103035761010080835404028352916020019161032e565b820191906000526020600020905b81548152906001019060200180831161031157829003601f168201915b505050505085828151811061034657610345610c00565b5b60200260200101819052506000818154811061036557610364610c00565b5b90600052602060002090600402016001015484828151811061038a57610389610c00565b5b602002602001018181525050600081815481106103aa576103a9610c00565b5b906000526020600020906004020160030180548060200260200160405190810160405280929190818152602001828054801561040557602002820191906000526020600020905b8154815260200190600101908083116103f1575b505050505083828151811061041d5761041c610c00565b5b6020026020010181905250816000828154811061043d5761043c610c00565b5b9060005260206000209060040201600101541115610531576000818154811061046957610468610c00565b5b90600052602060002090600402016001015491506000818154811061049157610490610c00565b5b906000526020600020906004020160000180546104ad90610ba0565b80601f01602080910402602001604051908101604052809291908181526020018280546104d990610ba0565b80156105265780601f106104fb57610100808354040283529160200191610526565b820191906000526020600020905b81548152906001019060200180831161050957829003601f168201915b505050505096508195505b8080600101915050610278565b50509091929394565b600080549050821061058e576040517f08c379a000000000000000000000000000000000000000000000000000000000815260040161058590610c7b565b60405180910390fd5b60008083815481106105a3576105a2610c00565b5b9060005260206000209060040201905080600201600083815260200190815260200160002060009054906101000a900460ff1615610616576040517f08c379a000000000000000000000000000000000000000000000000000000000815260040161060d90610ce7565b60405180910390fd5b600181600201600084815260200190815260200160002060006101000a81548160ff02191690831515021790555060018160010160008282546106599190610d36565b9250508190555080600301829080600181540180825580915050600190039060005260206000200160009091909190915055505050565b600080fd5b6000819050919050565b6106a881610695565b81146106b357600080fd5b50565b6000813590506106c58161069f565b92915050565b6000602082840312156106e1576106e0610690565b5b60006106ef848285016106b6565b91505092915050565b600081519050919050565b600082825260208201905092915050565b60005b83811015610732578082015181840152602081019050610717565b60008484015250505050565b6000601f19601f8301169050919050565b600061075a826106f8565b6107648185610703565b9350610774818560208601610714565b61077d8161073e565b840191505092915050565b61079181610695565b82525050565b600060408201905081810360008301526107b1818561074f565b90506107c06020830184610788565b9392505050565b600081519050919050565b600082825260208201905092915050565b6000819050602082019050919050565b600082825260208201905092915050565b600061080f826106f8565b61081981856107f3565b9350610829818560208601610714565b6108328161073e565b840191505092915050565b60006108498383610804565b905092915050565b6000602082019050919050565b6000610869826107c7565b61087381856107d2565b935083602082028501610885856107e3565b8060005b858110156108c157848403895281516108a2858261083d565b94506108ad83610851565b925060208a01995050600181019050610889565b50829750879550505050505092915050565b600081519050919050565b600082825260208201905092915050565b6000819050602082019050919050565b61090881610695565b82525050565b600061091a83836108ff565b60208301905092915050565b6000602082019050919050565b600061093e826108d3565b61094881856108de565b9350610953836108ef565b8060005b8381101561098457815161096b888261090e565b975061097683610926565b925050600181019050610957565b5085935050505092915050565b600081519050919050565b600082825260208201905092915050565b6000819050602082019050919050565b600082825260208201905092915050565b60006109d9826108d3565b6109e381856109bd565b93506109ee836108ef565b8060005b83811015610a1f578151610a06888261090e565b9750610a1183610926565b9250506001810190506109f2565b5085935050505092915050565b6000610a3883836109ce565b905092915050565b6000602082019050919050565b6000610a5882610991565b610a62818561099c565b935083602082028501610a74856109ad565b8060005b85811015610ab05784840389528151610a918582610a2c565b9450610a9c83610a40565b925060208a01995050600181019050610a78565b50829750879550505050505092915050565b600060a0820190508181036000830152610adc818861074f565b9050610aeb6020830187610788565b8181036040830152610afd818661085e565b90508181036060830152610b118185610933565b90508181036080830152610b258184610a4d565b90509695505050505050565b60008060408385031215610b4857610b47610690565b5b6000610b56858286016106b6565b9250506020610b67858286016106b6565b9150509250929050565b7f4e487b7100000000000000000000000000000000000000000000000000000000600052602260045260246000fd5b60006002820490506001821680610bb857607f821691505b602082108103610bcb57610bca610b71565b5b50919050565b7f4e487b7100000000000000000000000000000000000000000000000000000000600052604160045260246000fd5b7f4e487b7100000000000000000000000000000000000000000000000000000000600052603260045260246000fd5b7f496e76616c69642063616e64696461746520696e646578000000000000000000600082015250565b6000610c65601783610703565b9150610c7082610c2f565b602082019050919050565b60006020820190508181036000830152610c9481610c58565b9050919050565b7f566f7465722068617320616c726561647920766f746564000000000000000000600082015250565b6000610cd1601783610703565b9150610cdc82610c9b565b602082019050919050565b60006020820190508181036000830152610d0081610cc4565b9050919050565b7f4e487b7100000000000000000000000000000000000000000000000000000000600052601160045260246000fd5b6000610d4182610695565b9150610d4c83610695565b9250828201905080821115610d6457610d63610d07565b5b9291505056fea2646970667358221220c283be5e427e3917d0b8de4c18c4bd421a3f1101ec6f985efb0c118d117b8a8864736f6c634300081c0033",
  "linkReferences": {},
  "deployedLinkReferences": {}
}