{
  "_format": "hh-sol-artifact-1",
  "contractName": "VotingOptimized",
  "sourceName": "contracts/VotingOptimized.sol",
  "abi": [
    {
      "inputs": [
        {
          "internalType": "string[]",
          "name": "_candidateNames",
          "type": "string[]"
        }
      ],
      "stateMutability": "nonpayable",
      "type": "constructor"
    },
    {
      "inputs": [
        {
          "internalType": "uint256",
          "name": "",
          "type": "uint256"
        }
      ],
      "name": "candidates",
      "outputs": [
        {
          "internalType": "string",
          "name": "name",
          "type": "string"
        },
        {
          "internalType": "uint256",
          "name": "voteCount",
          "type": "uint256"
        }
      ],
      "stateMutability": "view",
      "type": "function"
    },
    {
      "inputs": [],
      "name": "getResults",
      "outputs": [
        {
          "internalType": "string",
          "name": "winnerName",
          "type": "string"
        },
        {
          "internalType": "uint256",
          "name": "winnerVotes",
          "type": "uint256"
        },
        {
          "internalType": "string[]",
          "name": "candidateNames",
          "type": "string[]"
        },
        {
          "internalType": "uint256[]",
          "name": "voteCounts",
          "type": "uint256[]"
        },
        {
          "internalType": "uint256[][]",
          "name": "allVoters",
          "type": "uint256[][]"
        }
      ],
      "stateMutability": "view",
      "type": "function"
    },
    {
      "inputs": [
        {
          "internalType": "uint256",
          "name": "candidateIndex",
          "type": "uint256"
        },
        {
          "internalType": "uint256",
          "name": "voterId",
          "type": "uint256"
        }
      ],
      "name": "vote",
      "outputs": [],
      "stateMutability": "nonpayable",
      "type": "function"
    }
  ],
  "bytecode": "0x608060405234801561001057600080fd5b5060405161143938038061143983398181016040528101906100329190610400565b60005b8151811015610134576000604051806060016040528084848151811061005e5761005d610449565b5b6020026020010151815260200160008152602001600067ffffffffffffffff81111561008d5761008c6101cf565b5b6040519080825280602002602001820160405280156100bb5781602001602082028036833780820191505090505b50815250908060018154018082558091505060019003906000526020600020906003020160009091909190915060008201518160000190816100fd9190610699565b5060208201518160010155604082015181600201908051906020019061012492919061013b565b5050508080600101915050610035565b505061076b565b828054828255906000526020600020908101928215610177579160200282015b8281111561017657825182559160200191906001019061015b565b5b5090506101849190610188565b5090565b5b808211156101a1576000816000905550600101610189565b5090565b6000604051905090565b600080fd5b600080fd5b600080fd5b6000601f19601f8301169050919050565b7f4e487b7100000000000000000000000000000000000000000000000000000000600052604160045260246000fd5b610207826101be565b810181811067ffffffffffffffff82111715610226576102256101cf565b5b80604052505050565b60006102396101a5565b905061024582826101fe565b919050565b600067ffffffffffffffff821115610265576102646101cf565b5b602082029050602081019050919050565b600080fd5b600080fd5b600067ffffffffffffffff82111561029b5761029a6101cf565b5b6102a4826101be565b9050602081019050919050565b60005b838110156102cf5780820151818401526020810190506102b4565b60008484015250505050565b60006102ee6102e984610280565b61022f565b90508281526020810184848401111561030a5761030961027b565b5b6103158482856102b1565b509392505050565b600082601f830112610332576103316101b9565b5b81516103428482602086016102db565b91505092915050565b600061035e6103598461024a565b61022f565b9050808382526020820190506020840283018581111561038157610380610276565b5b835b818110156103c857805167ffffffffffffffff8111156103a6576103a56101b9565b5b8086016103b3898261031d565b85526020850194505050602081019050610383565b5050509392505050565b600082601f8301126103e7576103e66101b9565b5b81516103f784826020860161034b565b91505092915050565b600060208284031215610416576104156101af565b5b600082015167ffffffffffffffff811115610434576104336101b4565b5b610440848285016103d2565b91505092915050565b7f4e487b7100000000000000000000000000000000000000000000000000000000600052603260045260246000fd5b600081519050919050565b7f4e487b7100000000000000000000000000000000000000000000000000000000600052602260045260246000fd5b600060028204905060018216806104ca57607f821691505b6020821081036104dd576104dc610483565b5b50919050565b60008190508160005260206000209050919050565b60006020601f8301049050919050565b600082821b905092915050565b6000600883026105457fffffffffffffffffffffffffffffffffffffffffffffffffffffffffffffffff82610508565b61054f8683610508565b95508019841693508086168417925050509392505050565b6000819050919050565b6000819050919050565b600061059661059161058c84610567565b610571565b610567565b9050919050565b6000819050919050565b6105b08361057b565b6105c46105bc8261059d565b848454610515565b825550505050565b600090565b6105d96105cc565b6105e48184846105a7565b505050565b5b81811015610608576105fd6000826105d1565b6001810190506105ea565b5050565b601f82111561064d5761061e816104e3565b610627846104f8565b81016020851015610636578190505b61064a610642856104f8565b8301826105e9565b50505b505050565b600082821c905092915050565b600061067060001984600802610652565b1980831691505092915050565b6000610689838361065f565b9150826002028217905092915050565b6106a282610478565b67ffffffffffffffff8111156106bb576106ba6101cf565b5b6106c582546104b2565b6106d082828561060c565b600060209050601f83116001811461070357600084156106f1578287015190505b6106fb858261067d565b865550610763565b601f198416610711866104e3565b60005b8281101561073957848901518255600182019150602085019450602081019050610714565b868310156107565784890151610752601f89168261065f565b8355505b6001600288020188555050505b505050505050565b610cbf8061077a6000396000f3fe608060405234801561001057600080fd5b50600436106100415760003560e01c80633477ee2e146100465780634717f97c14610077578063b384abef14610099575b600080fd5b610060600480360381019061005b9190610656565b6100b5565b60405161006e929190610722565b60405180910390f35b61007f610171565b604051610090959493929190610a4d565b60405180910390f35b6100b360048036038101906100ae9190610abc565b610547565b005b600081815481106100c557600080fd5b90600052602060002090600302016000915090508060000180546100e890610b2b565b80601f016020809104026020016040519081016040528092919081815260200182805461011490610b2b565b80156101615780601f1061013657610100808354040283529160200191610161565b820191906000526020600020905b81548152906001019060200180831161014457829003601f168201915b5050505050908060010154905082565b6060600060608060606000808054905067ffffffffffffffff81111561019a57610199610b5c565b5b6040519080825280602002602001820160405280156101cd57816020015b60608152602001906001900390816101b85790505b50935060008054905067ffffffffffffffff8111156101ef576101ee610b5c565b5b60405190808252806020026020018201604052801561021d5781602001602082028036833780820191505090505b50925060008054905067ffffffffffffffff81111561023f5761023e610b5c565b5b60405190808252806020026020018201604052801561027257816020015b606081526020019060019003908161025d5790505b50915060005b60008054905081101561053e576000818154811061029957610298610b8b565b5b906000526020600020906003020160000180546102b590610b2b565b80601f01602080910402602001604051908101604052809291908181526020018280546102e190610b2b565b801561032e5780601f106103035761010080835404028352916020019161032e565b820191906000526020600020905b81548152906001019060200180831161031157829003601f168201915b505050505085828151811061034657610345610b8b565b5b60200260200101819052506000818154811061036557610364610b8b565b5b90600052602060002090600302016001015484828151811061038a57610389610b8b565b5b602002602001018181525050600081815481106103aa576103a9610b8b565b5b906000526020600020906003020160020180548060200260200160405190810160405280929190818152602001828054801561040557602002820191906000526020600020905b8154815260200190600101908083116103f1575b505050505083828151811061041d5761041c610b8b565b5b6020026020010181905250816000828154811061043d5761043c610b8b565b5b9060005260206000209060030201600101541115610531576000818154811061046957610468610b8b565b5b90600052602060002090600302016001015491506000818154811061049157610490610b8b565b5b906000526020600020906003020160000180546104ad90610b2b565b80601f01602080910402602001604051908101604052809291908181526020018280546104d990610b2b565b80156105265780601f106104fb57610100808354040283529160200191610526565b820191906000526020600020905b81548152906001019060200180831161050957829003601f168201915b505050505096508195505b8080600101915050610278565b50509091929394565b600080549050821061058e576040517f08c379a000000000000000000000000000000000000000000000000000000000815260040161058590610c06565b60405180910390fd5b6001600083815481106105a4576105a3610b8b565b5b906000526020600020906003020160010160008282546105c49190610c55565b92505081905550600082815481106105df576105de610b8b565b5b90600052602060002090600302016002018190806001815401808255809150506001900390600052602060002001600090919091909150555050565b600080fd5b6000819050919050565b61063381610620565b811461063e57600080fd5b50565b6000813590506106508161062a565b92915050565b60006020828403121561066c5761066b61061b565b5b600061067a84828501610641565b91505092915050565b600081519050919050565b600082825260208201905092915050565b60005b838110156106bd5780820151818401526020810190506106a2565b60008484015250505050565b6000601f19601f8301169050919050565b60006106e582610683565b6106ef818561068e565b93506106ff81856020860161069f565b610708816106c9565b840191505092915050565b61071c81610620565b82525050565b6000604082019050818103600083015261073c81856106da565b905061074b6020830184610713565b9392505050565b600081519050919050565b600082825260208201905092915050565b6000819050602082019050919050565b600082825260208201905092915050565b600061079a82610683565b6107a4818561077e565b93506107b481856020860161069f565b6107bd816106c9565b840191505092915050565b60006107d4838361078f565b905092915050565b6000602082019050919050565b60006107f482610752565b6107fe818561075d565b9350836020820285016108108561076e565b8060005b8581101561084c578484038952815161082d85826107c8565b9450610838836107dc565b925060208a01995050600181019050610814565b50829750879550505050505092915050565b600081519050919050565b600082825260208201905092915050565b6000819050602082019050919050565b61089381610620565b82525050565b60006108a5838361088a565b60208301905092915050565b6000602082019050919050565b60006108c98261085e565b6108d38185610869565b93506108de8361087a565b8060005b8381101561090f5781516108f68882610899565b9750610901836108b1565b9250506001810190506108e2565b5085935050505092915050565b600081519050919050565b600082825260208201905092915050565b6000819050602082019050919050565b600082825260208201905092915050565b60006109648261085e565b61096e8185610948565b93506109798361087a565b8060005b838110156109aa5781516109918882610899565b975061099c836108b1565b92505060018101905061097d565b5085935050505092915050565b60006109c38383610959565b905092915050565b6000602082019050919050565b60006109e38261091c565b6109ed8185610927565b9350836020820285016109ff85610938565b8060005b85811015610a3b5784840389528151610a1c85826109b7565b9450610a27836109cb565b925060208a01995050600181019050610a03565b50829750879550505050505092915050565b600060a0820190508181036000830152610a6781886106da565b9050610a766020830187610713565b8181036040830152610a8881866107e9565b90508181036060830152610a9c81856108be565b90508181036080830152610ab081846109d8565b90509695505050505050565b60008060408385031215610ad357610ad261061b565b5b6000610ae185828601610641565b9250506020610af285828601610641565b9150509250929050565b7f4e487b7100000000000000000000000000000000000000000000000000000000600052602260045260246000fd5b60006002820490506001821680610b4357607f821691505b602082108103610b5657610b55610afc565b5b50919050565b7f4e487b7100000000000000000000000000000000000000000000000000000000600052604160045260246000fd5b7f4e487b7100000000000000000000000000000000000000000000000000000000600052603260045260246000fd5b7f496e76616c69642063616e64696461746520696e646578000000000000000000600082015250565b6000610bf060178361068e565b9150610bfb82610bba565b602082019050919050565b60006020820190508181036000830152610c1f81610be3565b9050919050565b7f4e487b7100000000000000000000000000000000000000000000000000000000600052601160045260246000fd5b6000610c6082610620565b9150610c6b83610620565b9250828201905080821115610c8357610c82610c26565b5b9291505056fea264697066735822122096a49ee02ef174fb3769c46f2559666281e17cac8d2f82dff9b9f5fc7cbb43e564736f6c634300081c0033",
  "linkReferences": {},
  "deployedLinkReferences": {}
}